:100000001CC02CC02BC02AC029C028C027C026C0B5
:1000100025C024C023C022C021C020C01FC01EC0D4
:100020001DC01CC01BC026C027C028C029C02AC0B4
:100030002BC02CC02DC02EC02FC011241FBECFED51
:10004000CDBF10E0A0E6B0E0EEE8F2E002C005901F
:100050000D92A236B107D9F749D017C1D1CF8091FF
:10006000610090E0FC017997EA30F105B8F4ED5EAB
:10007000FF4F099483E813C087E811C085E80FC0DB
:100080008DE80DC089E80BC089E909C081E907C086
:1000900081EB05C081EA03C081EE01C081EC88BB21
:1000A000089584ED90E30197F1F786B390E08770AF
:1000B000907020916100892B11F42F5F02C086B3EC
:1000C00021502093610080916100843210F083E21E
:1000D00003C0893118F489E18093610086B390E010
:1000E00087709070892BD1F386B3F8CF7F928F926F
:1000F0009F92AF92BF92CF92DF92EF92FF920F93B7
:100100001F93CF93DF938CE181BB8EE787BB81E8A0
:1001100088BB86E089B912B888E08AB9C0E0D0E02F
:1001200044EF842E41E0942E34EDA32E30E3B32E21
:100130002AEFE22EF12C7724739499E1C92ED12C69
:1001400001E89498C4010197F1F7949A10E0C50171
:100150000197F1F786B390E087709070892B09F0D2
:1001600086B39FDF7CDF1F5F183289F79498939ADC
:10017000C7010197F1F793982BE030E0872D8A951E
:10018000F1F7939A80B382958695877090E081709D
:100190009070022E02C0880F991F0A94E2F7C80FD0
:1001A000D91F9398215030408FEF2F3F380731F7F8
:1001B000939A80B39398939AF7013197F1F79398B4
:1001C000F7013197F1F7939AF7013197F1F7939887
:1001D000F7013197F1F7949A85FD26C09E01369577
:1001E0002795369527958091610090E06AE070E050
:1001F00026D02817390718F432DF929A02C008BBBC
:100200009298CE0168E270E02CD0362F862F972F7F
:10021000EC015D9BFECF3CB988EB9BE0F60131978A
:10022000F1F70197D9F78DCF929819DF88EB9BE012
:10023000F6013197F1F70197D9F708BB82CF55271F
:10024000002480FF02C0060E571F660F771F61153E
:10025000710521F096958795009799F7952F802D38
:100260000895AA1BBB1B51E107C0AA1FBB1FA617FD
:10027000B70710F0A61BB70B881F991F5A95A9F74F
:0E02800080959095BC01CD010895F894FFCFB4
:02028E008319D2
:00000001FF
