:1000000012C017C016C015C014C013C012C011C052
:1000100010C00FC00EC00DC00CC00BC00AC009C07C
:1000200008C007C006C011241FBECFEDCDBF02D04F
:100030006BC0E6CFFF920F931F93CF93DF938BE1BB
:1000400087BB40E050E004EF11E0A0E5B3EC6AEFBD
:1000500070E0FF24F394C9E1D0E0C198C801019792
:10006000F1F7C19ACD010197F1F7C198C09ACB0180
:100070000197F1F7C0982BE030E08F2D8A95F1F7CA
:10008000C09A86B38695869590E081709070022E16
:1000900002C0880F991F0A94E2F7480F591FC098B1
:1000A000215030408FEF2F3F380739F7C09A86B381
:1000B000C098C09AFB013197F1F7C098FB013197C6
:1000C000F1F7C09AFB013197F1F7C098FB01319726
:1000D000F1F7C19A82FD0AC085E04832580718F44A
:1000E000C39AC49A0DC0C398C4980AC0C498C39A4E
:1000F00088EB9BE0FE013197F1F70197D9F7C398A0
:0C010000CD010197F1F7A9CFF894FFCFD3
:00000001FF
